{
  "_format": "hh-sol-artifact-1",
  "contractName": "SaltToken",
  "sourceName": "contracts/SaltToken.sol",
  "abi": [
    {
      "inputs": [
        {
          "internalType": "string",
          "name": "name",
          "type": "string"
        },
        {
          "internalType": "string",
          "name": "symbol",
          "type": "string"
        },
        {
          "internalType": "uint256",
          "name": "initialSupply",
          "type": "uint256"
        },
        {
          "internalType": "uint256",
          "name": "_epochId",
          "type": "uint256"
        },
        {
          "internalType": "address",
          "name": "admin",
          "type": "address"
        }
      ],
      "stateMutability": "nonpayable",
      "type": "constructor"
    },
    {
      "anonymous": false,
      "inputs": [
        {
          "indexed": true,
          "internalType": "address",
          "name": "owner",
          "type": "address"
        },
        {
          "indexed": true,
          "internalType": "address",
          "name": "spender",
          "type": "address"
        },
        {
          "indexed": false,
          "internalType": "uint256",
          "name": "value",
          "type": "uint256"
        }
      ],
      "name": "Approval",
      "type": "event"
    },
    {
      "anonymous": false,
      "inputs": [
        {
          "indexed": true,
          "internalType": "bytes32",
          "name": "role",
          "type": "bytes32"
        },
        {
          "indexed": true,
          "internalType": "bytes32",
          "name": "previousAdminRole",
          "type": "bytes32"
        },
        {
          "indexed": true,
          "internalType": "bytes32",
          "name": "newAdminRole",
          "type": "bytes32"
        }
      ],
      "name": "RoleAdminChanged",
      "type": "event"
    },
    {
      "anonymous": false,
      "inputs": [
        {
          "indexed": true,
          "internalType": "bytes32",
          "name": "role",
          "type": "bytes32"
        },
        {
          "indexed": true,
          "internalType": "address",
          "name": "account",
          "type": "address"
        },
        {
          "indexed": true,
          "internalType": "address",
          "name": "sender",
          "type": "address"
        }
      ],
      "name": "RoleGranted",
      "type": "event"
    },
    {
      "anonymous": false,
      "inputs": [
        {
          "indexed": true,
          "internalType": "bytes32",
          "name": "role",
          "type": "bytes32"
        },
        {
          "indexed": true,
          "internalType": "address",
          "name": "account",
          "type": "address"
        },
        {
          "indexed": true,
          "internalType": "address",
          "name": "sender",
          "type": "address"
        }
      ],
      "name": "RoleRevoked",
      "type": "event"
    },
    {
      "anonymous": false,
      "inputs": [
        {
          "indexed": true,
          "internalType": "address",
          "name": "from",
          "type": "address"
        },
        {
          "indexed": true,
          "internalType": "address",
          "name": "to",
          "type": "address"
        },
        {
          "indexed": false,
          "internalType": "uint256",
          "name": "value",
          "type": "uint256"
        }
      ],
      "name": "Transfer",
      "type": "event"
    },
    {
      "inputs": [],
      "name": "BURNER_ROLE",
      "outputs": [
        {
          "internalType": "bytes32",
          "name": "",
          "type": "bytes32"
        }
      ],
      "stateMutability": "view",
      "type": "function"
    },
    {
      "inputs": [],
      "name": "DEFAULT_ADMIN_ROLE",
      "outputs": [
        {
          "internalType": "bytes32",
          "name": "",
          "type": "bytes32"
        }
      ],
      "stateMutability": "view",
      "type": "function"
    },
    {
      "inputs": [],
      "name": "MINTER_ROLE",
      "outputs": [
        {
          "internalType": "bytes32",
          "name": "",
          "type": "bytes32"
        }
      ],
      "stateMutability": "view",
      "type": "function"
    },
    {
      "inputs": [
        {
          "internalType": "address",
          "name": "owner",
          "type": "address"
        },
        {
          "internalType": "address",
          "name": "spender",
          "type": "address"
        }
      ],
      "name": "allowance",
      "outputs": [
        {
          "internalType": "uint256",
          "name": "",
          "type": "uint256"
        }
      ],
      "stateMutability": "view",
      "type": "function"
    },
    {
      "inputs": [
        {
          "internalType": "address",
          "name": "spender",
          "type": "address"
        },
        {
          "internalType": "uint256",
          "name": "amount",
          "type": "uint256"
        }
      ],
      "name": "approve",
      "outputs": [
        {
          "internalType": "bool",
          "name": "",
          "type": "bool"
        }
      ],
      "stateMutability": "nonpayable",
      "type": "function"
    },
    {
      "inputs": [
        {
          "internalType": "address",
          "name": "account",
          "type": "address"
        }
      ],
      "name": "balanceOf",
      "outputs": [
        {
          "internalType": "uint256",
          "name": "",
          "type": "uint256"
        }
      ],
      "stateMutability": "view",
      "type": "function"
    },
    {
      "inputs": [
        {
          "internalType": "uint256",
          "name": "amount",
          "type": "uint256"
        }
      ],
      "name": "burn",
      "outputs": [],
      "stateMutability": "nonpayable",
      "type": "function"
    },
    {
      "inputs": [
        {
          "internalType": "address",
          "name": "account",
          "type": "address"
        },
        {
          "internalType": "uint256",
          "name": "amount",
          "type": "uint256"
        }
      ],
      "name": "burnFrom",
      "outputs": [],
      "stateMutability": "nonpayable",
      "type": "function"
    },
    {
      "inputs": [],
      "name": "decimals",
      "outputs": [
        {
          "internalType": "uint8",
          "name": "",
          "type": "uint8"
        }
      ],
      "stateMutability": "view",
      "type": "function"
    },
    {
      "inputs": [
        {
          "internalType": "address",
          "name": "spender",
          "type": "address"
        },
        {
          "internalType": "uint256",
          "name": "subtractedValue",
          "type": "uint256"
        }
      ],
      "name": "decreaseAllowance",
      "outputs": [
        {
          "internalType": "bool",
          "name": "",
          "type": "bool"
        }
      ],
      "stateMutability": "nonpayable",
      "type": "function"
    },
    {
      "inputs": [],
      "name": "epochId",
      "outputs": [
        {
          "internalType": "uint256",
          "name": "",
          "type": "uint256"
        }
      ],
      "stateMutability": "view",
      "type": "function"
    },
    {
      "inputs": [
        {
          "internalType": "bytes32",
          "name": "role",
          "type": "bytes32"
        }
      ],
      "name": "getRoleAdmin",
      "outputs": [
        {
          "internalType": "bytes32",
          "name": "",
          "type": "bytes32"
        }
      ],
      "stateMutability": "view",
      "type": "function"
    },
    {
      "inputs": [
        {
          "internalType": "bytes32",
          "name": "role",
          "type": "bytes32"
        },
        {
          "internalType": "address",
          "name": "account",
          "type": "address"
        }
      ],
      "name": "grantRole",
      "outputs": [],
      "stateMutability": "nonpayable",
      "type": "function"
    },
    {
      "inputs": [
        {
          "internalType": "bytes32",
          "name": "role",
          "type": "bytes32"
        },
        {
          "internalType": "address",
          "name": "account",
          "type": "address"
        }
      ],
      "name": "hasRole",
      "outputs": [
        {
          "internalType": "bool",
          "name": "",
          "type": "bool"
        }
      ],
      "stateMutability": "view",
      "type": "function"
    },
    {
      "inputs": [
        {
          "internalType": "address",
          "name": "spender",
          "type": "address"
        },
        {
          "internalType": "uint256",
          "name": "addedValue",
          "type": "uint256"
        }
      ],
      "name": "increaseAllowance",
      "outputs": [
        {
          "internalType": "bool",
          "name": "",
          "type": "bool"
        }
      ],
      "stateMutability": "nonpayable",
      "type": "function"
    },
    {
      "inputs": [
        {
          "internalType": "address",
          "name": "to",
          "type": "address"
        },
        {
          "internalType": "uint256",
          "name": "amount",
          "type": "uint256"
        }
      ],
      "name": "mint",
      "outputs": [],
      "stateMutability": "nonpayable",
      "type": "function"
    },
    {
      "inputs": [],
      "name": "name",
      "outputs": [
        {
          "internalType": "string",
          "name": "",
          "type": "string"
        }
      ],
      "stateMutability": "view",
      "type": "function"
    },
    {
      "inputs": [
        {
          "internalType": "bytes32",
          "name": "role",
          "type": "bytes32"
        },
        {
          "internalType": "address",
          "name": "account",
          "type": "address"
        }
      ],
      "name": "renounceRole",
      "outputs": [],
      "stateMutability": "nonpayable",
      "type": "function"
    },
    {
      "inputs": [
        {
          "internalType": "bytes32",
          "name": "role",
          "type": "bytes32"
        },
        {
          "internalType": "address",
          "name": "account",
          "type": "address"
        }
      ],
      "name": "revokeRole",
      "outputs": [],
      "stateMutability": "nonpayable",
      "type": "function"
    },
    {
      "inputs": [
        {
          "internalType": "bytes4",
          "name": "interfaceId",
          "type": "bytes4"
        }
      ],
      "name": "supportsInterface",
      "outputs": [
        {
          "internalType": "bool",
          "name": "",
          "type": "bool"
        }
      ],
      "stateMutability": "view",
      "type": "function"
    },
    {
      "inputs": [],
      "name": "symbol",
      "outputs": [
        {
          "internalType": "string",
          "name": "",
          "type": "string"
        }
      ],
      "stateMutability": "view",
      "type": "function"
    },
    {
      "inputs": [],
      "name": "totalSupply",
      "outputs": [
        {
          "internalType": "uint256",
          "name": "",
          "type": "uint256"
        }
      ],
      "stateMutability": "view",
      "type": "function"
    },
    {
      "inputs": [
        {
          "internalType": "address",
          "name": "to",
          "type": "address"
        },
        {
          "internalType": "uint256",
          "name": "amount",
          "type": "uint256"
        }
      ],
      "name": "transfer",
      "outputs": [
        {
          "internalType": "bool",
          "name": "",
          "type": "bool"
        }
      ],
      "stateMutability": "nonpayable",
      "type": "function"
    },
    {
      "inputs": [
        {
          "internalType": "address",
          "name": "from",
          "type": "address"
        },
        {
          "internalType": "address",
          "name": "to",
          "type": "address"
        },
        {
          "internalType": "uint256",
          "name": "amount",
          "type": "uint256"
        }
      ],
      "name": "transferFrom",
      "outputs": [
        {
          "internalType": "bool",
          "name": "",
          "type": "bool"
        }
      ],
      "stateMutability": "nonpayable",
      "type": "function"
    }
  ],
  "bytecode": "0x60806040523480156200001157600080fd5b506040516200170f3803806200170f8339810160408190526200003491620002c7565b84846003620000448382620003f7565b506004620000538282620003f7565b50505060068290556200006781846200007f565b6200007460008262000146565b5050505050620004e5565b6001600160a01b038216620000da5760405162461bcd60e51b815260206004820152601f60248201527f45524332303a206d696e7420746f20746865207a65726f206164647265737300604482015260640160405180910390fd5b8060026000828254620000ee9190620004c3565b90915550506001600160a01b038216600081815260208181526040808320805486019055518481527fddf252ad1be2c89b69c2b068fc378daa952ba7f163c4a11628f55a4df523b3ef910160405180910390a35b5050565b620001528282620001d5565b620001425760008281526005602090815260408083206001600160a01b03851684529091529020805460ff191660011790556200018c3390565b6001600160a01b0316816001600160a01b0316837f2f8788117e7eff1d82e926ec794901d17c78024a50270940304540a733656f0d60405160405180910390a45050565b505050565b60008281526005602090815260408083206001600160a01b038516845290915290205460ff165b92915050565b634e487b7160e01b600052604160045260246000fd5b600082601f8301126200022a57600080fd5b81516001600160401b038082111562000247576200024762000202565b604051601f8301601f19908116603f0116810190828211818310171562000272576200027262000202565b816040528381526020925086838588010111156200028f57600080fd5b600091505b83821015620002b3578582018301518183018401529082019062000294565b600093810190920192909252949350505050565b600080600080600060a08688031215620002e057600080fd5b85516001600160401b0380821115620002f857600080fd5b6200030689838a0162000218565b965060208801519150808211156200031d57600080fd5b506200032c8882890162000218565b6040880151606089015160808a0151929750909550935090506001600160a01b03811681146200035b57600080fd5b809150509295509295909350565b600181811c908216806200037e57607f821691505b6020821081036200039f57634e487b7160e01b600052602260045260246000fd5b50919050565b601f821115620001d057600081815260208120601f850160051c81016020861015620003ce5750805b601f850160051c820191505b81811015620003ef57828155600101620003da565b505050505050565b81516001600160401b0381111562000413576200041362000202565b6200042b8162000424845462000369565b84620003a5565b602080601f8311600181146200046357600084156200044a5750858301515b600019600386901b1c1916600185901b178555620003ef565b600085815260208120601f198616915b82811015620004945788860151825594840194600190910190840162000473565b5085821015620004b35787850151600019600388901b60f8161c191681555b5050505050600190811b01905550565b80820180821115620001fc57634e487b7160e01b600052601160045260246000fd5b61121a80620004f56000396000f3fe608060405234801561001057600080fd5b50600436106101585760003560e01c806342966c68116100c3578063a457c2d71161007c578063a457c2d7146102eb578063a9059cbb146102fe578063aa9bbc0c14610311578063d53913931461031a578063d547741f14610341578063dd62ed3e1461035457600080fd5b806342966c681461027957806370a082311461028c57806379cc6790146102b557806391d14854146102c857806395d89b41146102db578063a217fddf146102e357600080fd5b8063282c51f311610115578063282c51f3146101f55780632f2ff15d1461021c578063313ce5671461023157806336568abe14610240578063395093511461025357806340c10f191461026657600080fd5b806301ffc9a71461015d57806306fdde0314610185578063095ea7b31461019a57806318160ddd146101ad57806323b872dd146101bf578063248a9ca3146101d2575b600080fd5b61017061016b366004610f25565b610367565b60405190151581526020015b60405180910390f35b61018d61039e565b60405161017c9190610f73565b6101706101a8366004610fc2565b610430565b6002545b60405190815260200161017c565b6101706101cd366004610fec565b610448565b6101b16101e0366004611028565b60009081526005602052604090206001015490565b6101b17f9667e80708b6eeeb0053fa0cca44e028ff548e2a9f029edfeac87c118b08b7c881565b61022f61022a366004611041565b61046c565b005b6040516012815260200161017c565b61022f61024e366004611041565b610496565b610170610261366004610fc2565b610519565b61022f610274366004610fc2565b61053b565b61022f610287366004611028565b61056f565b6101b161029a36600461106d565b6001600160a01b031660009081526020819052604090205490565b61022f6102c3366004610fc2565b6105a3565b6101706102d6366004611041565b6105d7565b61018d610602565b6101b1600081565b6101706102f9366004610fc2565b610611565b61017061030c366004610fc2565b61068c565b6101b160065481565b6101b17ff0887ba65ee2024ea881d91b74c2450ef19e1557f03bed3ea9f16b037cbe2dc981565b61022f61034f366004611041565b61069a565b6101b1610362366004611088565b6106bf565b60006001600160e01b03198216637965db0b60e01b148061039857506301ffc9a760e01b6001600160e01b03198316145b92915050565b6060600380546103ad906110b2565b80601f01602080910402602001604051908101604052809291908181526020018280546103d9906110b2565b80156104265780601f106103fb57610100808354040283529160200191610426565b820191906000526020600020905b81548152906001019060200180831161040957829003601f168201915b5050505050905090565b60003361043e8185856106ea565b5060019392505050565b60003361045685828561080e565b610461858585610888565b506001949350505050565b60008281526005602052604090206001015461048781610a2c565b6104918383610a39565b505050565b6001600160a01b038116331461050b5760405162461bcd60e51b815260206004820152602f60248201527f416363657373436f6e74726f6c3a2063616e206f6e6c792072656e6f756e636560448201526e103937b632b9903337b91039b2b63360891b60648201526084015b60405180910390fd5b6105158282610abf565b5050565b60003361043e81858561052c83836106bf565b6105369190611102565b6106ea565b7ff0887ba65ee2024ea881d91b74c2450ef19e1557f03bed3ea9f16b037cbe2dc961056581610a2c565b6104918383610b26565b7f9667e80708b6eeeb0053fa0cca44e028ff548e2a9f029edfeac87c118b08b7c861059981610a2c565b6105153383610be5565b7f9667e80708b6eeeb0053fa0cca44e028ff548e2a9f029edfeac87c118b08b7c86105cd81610a2c565b6104918383610be5565b60009182526005602090815260408084206001600160a01b0393909316845291905290205460ff1690565b6060600480546103ad906110b2565b6000338161061f82866106bf565b90508381101561067f5760405162461bcd60e51b815260206004820152602560248201527f45524332303a2064656372656173656420616c6c6f77616e63652062656c6f77604482015264207a65726f60d81b6064820152608401610502565b61046182868684036106ea565b60003361043e818585610888565b6000828152600560205260409020600101546106b581610a2c565b6104918383610abf565b6001600160a01b03918216600090815260016020908152604080832093909416825291909152205490565b6001600160a01b03831661074c5760405162461bcd60e51b8152602060048201526024808201527f45524332303a20617070726f76652066726f6d20746865207a65726f206164646044820152637265737360e01b6064820152608401610502565b6001600160a01b0382166107ad5760405162461bcd60e51b815260206004820152602260248201527f45524332303a20617070726f766520746f20746865207a65726f206164647265604482015261737360f01b6064820152608401610502565b6001600160a01b0383811660008181526001602090815260408083209487168084529482529182902085905590518481527f8c5be1e5ebec7d5bd14f71427d1e84f3dd0314c0f7b2291e5b200ac8c7c3b925910160405180910390a3505050565b600061081a84846106bf565b9050600019811461088257818110156108755760405162461bcd60e51b815260206004820152601d60248201527f45524332303a20696e73756666696369656e7420616c6c6f77616e63650000006044820152606401610502565b61088284848484036106ea565b50505050565b6001600160a01b0383166108ec5760405162461bcd60e51b815260206004820152602560248201527f45524332303a207472616e736665722066726f6d20746865207a65726f206164604482015264647265737360d81b6064820152608401610502565b6001600160a01b03821661094e5760405162461bcd60e51b815260206004820152602360248201527f45524332303a207472616e7366657220746f20746865207a65726f206164647260448201526265737360e81b6064820152608401610502565b6001600160a01b038316600090815260208190526040902054818110156109c65760405162461bcd60e51b815260206004820152602660248201527f45524332303a207472616e7366657220616d6f756e7420657863656564732062604482015265616c616e636560d01b6064820152608401610502565b6001600160a01b03848116600081815260208181526040808320878703905593871680835291849020805487019055925185815290927fddf252ad1be2c89b69c2b068fc378daa952ba7f163c4a11628f55a4df523b3ef910160405180910390a3610882565b610a368133610d17565b50565b610a4382826105d7565b6105155760008281526005602090815260408083206001600160a01b03851684529091529020805460ff19166001179055610a7b3390565b6001600160a01b0316816001600160a01b0316837f2f8788117e7eff1d82e926ec794901d17c78024a50270940304540a733656f0d60405160405180910390a45050565b610ac982826105d7565b156105155760008281526005602090815260408083206001600160a01b0385168085529252808320805460ff1916905551339285917ff6391f5c32d9c69d2a47ea670b442974b53935d1edc7fd64eb21e047a839171b9190a45050565b6001600160a01b038216610b7c5760405162461bcd60e51b815260206004820152601f60248201527f45524332303a206d696e7420746f20746865207a65726f2061646472657373006044820152606401610502565b8060026000828254610b8e9190611102565b90915550506001600160a01b038216600081815260208181526040808320805486019055518481527fddf252ad1be2c89b69c2b068fc378daa952ba7f163c4a11628f55a4df523b3ef910160405180910390a35050565b6001600160a01b038216610c455760405162461bcd60e51b815260206004820152602160248201527f45524332303a206275726e2066726f6d20746865207a65726f206164647265736044820152607360f81b6064820152608401610502565b6001600160a01b03821660009081526020819052604090205481811015610cb95760405162461bcd60e51b815260206004820152602260248201527f45524332303a206275726e20616d6f756e7420657863656564732062616c616e604482015261636560f01b6064820152608401610502565b6001600160a01b0383166000818152602081815260408083208686039055600280548790039055518581529192917fddf252ad1be2c89b69c2b068fc378daa952ba7f163c4a11628f55a4df523b3ef910160405180910390a3505050565b610d2182826105d7565b61051557610d2e81610d70565b610d39836020610d82565b604051602001610d4a929190611115565b60408051601f198184030181529082905262461bcd60e51b825261050291600401610f73565b60606103986001600160a01b03831660145b60606000610d9183600261118a565b610d9c906002611102565b67ffffffffffffffff811115610db457610db46111a1565b6040519080825280601f01601f191660200182016040528015610dde576020820181803683370190505b509050600360fc1b81600081518110610df957610df96111b7565b60200101906001600160f81b031916908160001a905350600f60fb1b81600181518110610e2857610e286111b7565b60200101906001600160f81b031916908160001a9053506000610e4c84600261118a565b610e57906001611102565b90505b6001811115610ecf576f181899199a1a9b1b9c1cb0b131b232b360811b85600f1660108110610e8b57610e8b6111b7565b1a60f81b828281518110610ea157610ea16111b7565b60200101906001600160f81b031916908160001a90535060049490941c93610ec8816111cd565b9050610e5a565b508315610f1e5760405162461bcd60e51b815260206004820181905260248201527f537472696e67733a20686578206c656e67746820696e73756666696369656e746044820152606401610502565b9392505050565b600060208284031215610f3757600080fd5b81356001600160e01b031981168114610f1e57600080fd5b60005b83811015610f6a578181015183820152602001610f52565b50506000910152565b6020815260008251806020840152610f92816040850160208701610f4f565b601f01601f19169190910160400192915050565b80356001600160a01b0381168114610fbd57600080fd5b919050565b60008060408385031215610fd557600080fd5b610fde83610fa6565b946020939093013593505050565b60008060006060848603121561100157600080fd5b61100a84610fa6565b925061101860208501610fa6565b9150604084013590509250925092565b60006020828403121561103a57600080fd5b5035919050565b6000806040838503121561105457600080fd5b8235915061106460208401610fa6565b90509250929050565b60006020828403121561107f57600080fd5b610f1e82610fa6565b6000806040838503121561109b57600080fd5b6110a483610fa6565b915061106460208401610fa6565b600181811c908216806110c657607f821691505b6020821081036110e657634e487b7160e01b600052602260045260246000fd5b50919050565b634e487b7160e01b600052601160045260246000fd5b80820180821115610398576103986110ec565b7f416363657373436f6e74726f6c3a206163636f756e742000000000000000000081526000835161114d816017850160208801610f4f565b7001034b99036b4b9b9b4b733903937b6329607d1b601791840191820152835161117e816028840160208801610f4f565b01602801949350505050565b8082028115828204841417610398576103986110ec565b634e487b7160e01b600052604160045260246000fd5b634e487b7160e01b600052603260045260246000fd5b6000816111dc576111dc6110ec565b50600019019056fea2646970667358221220c8f167289481f399373b11303ee41852b959be94103bf727c8fe9f517143b49264736f6c63430008140033",
  "linkReferences": {},
  "deployedLinkReferences": {}
}