{
  "_format": "hh-sol-artifact-1",
  "contractName": "SaltBrickNFT",
  "sourceName": "contracts/SaltBrickNFT.sol",
  "abi": [
    {
      "inputs": [
        {
          "internalType": "string",
          "name": "name",
          "type": "string"
        },
        {
          "internalType": "string",
          "name": "symbol",
          "type": "string"
        }
      ],
      "stateMutability": "nonpayable",
      "type": "constructor"
    },
    {
      "anonymous": false,
      "inputs": [
        {
          "indexed": true,
          "internalType": "address",
          "name": "owner",
          "type": "address"
        },
        {
          "indexed": true,
          "internalType": "address",
          "name": "approved",
          "type": "address"
        },
        {
          "indexed": true,
          "internalType": "uint256",
          "name": "tokenId",
          "type": "uint256"
        }
      ],
      "name": "Approval",
      "type": "event"
    },
    {
      "anonymous": false,
      "inputs": [
        {
          "indexed": true,
          "internalType": "address",
          "name": "owner",
          "type": "address"
        },
        {
          "indexed": true,
          "internalType": "address",
          "name": "operator",
          "type": "address"
        },
        {
          "indexed": false,
          "internalType": "bool",
          "name": "approved",
          "type": "bool"
        }
      ],
      "name": "ApprovalForAll",
      "type": "event"
    },
    {
      "anonymous": false,
      "inputs": [
        {
          "indexed": false,
          "internalType": "uint256",
          "name": "_fromTokenId",
          "type": "uint256"
        },
        {
          "indexed": false,
          "internalType": "uint256",
          "name": "_toTokenId",
          "type": "uint256"
        }
      ],
      "name": "BatchMetadataUpdate",
      "type": "event"
    },
    {
      "anonymous": false,
      "inputs": [
        {
          "indexed": false,
          "internalType": "uint256",
          "name": "_tokenId",
          "type": "uint256"
        }
      ],
      "name": "MetadataUpdate",
      "type": "event"
    },
    {
      "anonymous": false,
      "inputs": [
        {
          "indexed": true,
          "internalType": "address",
          "name": "previousOwner",
          "type": "address"
        },
        {
          "indexed": true,
          "internalType": "address",
          "name": "newOwner",
          "type": "address"
        }
      ],
      "name": "OwnershipTransferred",
      "type": "event"
    },
    {
      "anonymous": false,
      "inputs": [
        {
          "indexed": true,
          "internalType": "uint256",
          "name": "tokenId",
          "type": "uint256"
        },
        {
          "indexed": false,
          "internalType": "string",
          "name": "content",
          "type": "string"
        },
        {
          "indexed": false,
          "internalType": "uint256",
          "name": "price",
          "type": "uint256"
        }
      ],
      "name": "PromptAdded",
      "type": "event"
    },
    {
      "anonymous": false,
      "inputs": [
        {
          "indexed": true,
          "internalType": "address",
          "name": "to",
          "type": "address"
        },
        {
          "indexed": false,
          "internalType": "uint256",
          "name": "tokenId",
          "type": "uint256"
        },
        {
          "indexed": false,
          "internalType": "string",
          "name": "uri",
          "type": "string"
        }
      ],
      "name": "ScrollMinted",
      "type": "event"
    },
    {
      "anonymous": false,
      "inputs": [
        {
          "indexed": true,
          "internalType": "address",
          "name": "from",
          "type": "address"
        },
        {
          "indexed": true,
          "internalType": "address",
          "name": "to",
          "type": "address"
        },
        {
          "indexed": true,
          "internalType": "uint256",
          "name": "tokenId",
          "type": "uint256"
        }
      ],
      "name": "Transfer",
      "type": "event"
    },
    {
      "inputs": [
        {
          "internalType": "uint256",
          "name": "tokenId",
          "type": "uint256"
        },
        {
          "internalType": "string",
          "name": "content",
          "type": "string"
        },
        {
          "internalType": "uint256",
          "name": "price",
          "type": "uint256"
        },
        {
          "internalType": "string",
          "name": "newTokenURI",
          "type": "string"
        }
      ],
      "name": "addPromptToScroll",
      "outputs": [],
      "stateMutability": "nonpayable",
      "type": "function"
    },
    {
      "inputs": [
        {
          "internalType": "address",
          "name": "to",
          "type": "address"
        },
        {
          "internalType": "uint256",
          "name": "tokenId",
          "type": "uint256"
        }
      ],
      "name": "approve",
      "outputs": [],
      "stateMutability": "nonpayable",
      "type": "function"
    },
    {
      "inputs": [
        {
          "internalType": "address",
          "name": "owner",
          "type": "address"
        }
      ],
      "name": "balanceOf",
      "outputs": [
        {
          "internalType": "uint256",
          "name": "",
          "type": "uint256"
        }
      ],
      "stateMutability": "view",
      "type": "function"
    },
    {
      "inputs": [
        {
          "internalType": "uint256",
          "name": "tokenId",
          "type": "uint256"
        }
      ],
      "name": "getApproved",
      "outputs": [
        {
          "internalType": "address",
          "name": "",
          "type": "address"
        }
      ],
      "stateMutability": "view",
      "type": "function"
    },
    {
      "inputs": [
        {
          "internalType": "uint256",
          "name": "tokenId",
          "type": "uint256"
        },
        {
          "internalType": "uint256",
          "name": "index",
          "type": "uint256"
        }
      ],
      "name": "getPromptAt",
      "outputs": [
        {
          "internalType": "string",
          "name": "",
          "type": "string"
        },
        {
          "internalType": "uint256",
          "name": "",
          "type": "uint256"
        },
        {
          "internalType": "uint256",
          "name": "",
          "type": "uint256"
        }
      ],
      "stateMutability": "view",
      "type": "function"
    },
    {
      "inputs": [
        {
          "internalType": "uint256",
          "name": "tokenId",
          "type": "uint256"
        }
      ],
      "name": "getPromptCount",
      "outputs": [
        {
          "internalType": "uint256",
          "name": "",
          "type": "uint256"
        }
      ],
      "stateMutability": "view",
      "type": "function"
    },
    {
      "inputs": [
        {
          "internalType": "uint256",
          "name": "tokenId",
          "type": "uint256"
        }
      ],
      "name": "getScrollValue",
      "outputs": [
        {
          "internalType": "uint256",
          "name": "",
          "type": "uint256"
        }
      ],
      "stateMutability": "view",
      "type": "function"
    },
    {
      "inputs": [
        {
          "internalType": "address",
          "name": "owner",
          "type": "address"
        },
        {
          "internalType": "address",
          "name": "operator",
          "type": "address"
        }
      ],
      "name": "isApprovedForAll",
      "outputs": [
        {
          "internalType": "bool",
          "name": "",
          "type": "bool"
        }
      ],
      "stateMutability": "view",
      "type": "function"
    },
    {
      "inputs": [
        {
          "internalType": "address",
          "name": "to",
          "type": "address"
        },
        {
          "internalType": "string",
          "name": "uri",
          "type": "string"
        }
      ],
      "name": "mint",
      "outputs": [],
      "stateMutability": "nonpayable",
      "type": "function"
    },
    {
      "inputs": [],
      "name": "name",
      "outputs": [
        {
          "internalType": "string",
          "name": "",
          "type": "string"
        }
      ],
      "stateMutability": "view",
      "type": "function"
    },
    {
      "inputs": [],
      "name": "owner",
      "outputs": [
        {
          "internalType": "address",
          "name": "",
          "type": "address"
        }
      ],
      "stateMutability": "view",
      "type": "function"
    },
    {
      "inputs": [
        {
          "internalType": "uint256",
          "name": "tokenId",
          "type": "uint256"
        }
      ],
      "name": "ownerOf",
      "outputs": [
        {
          "internalType": "address",
          "name": "",
          "type": "address"
        }
      ],
      "stateMutability": "view",
      "type": "function"
    },
    {
      "inputs": [
        {
          "internalType": "uint256",
          "name": "",
          "type": "uint256"
        },
        {
          "internalType": "uint256",
          "name": "",
          "type": "uint256"
        }
      ],
      "name": "promptScrolls",
      "outputs": [
        {
          "internalType": "string",
          "name": "content",
          "type": "string"
        },
        {
          "internalType": "uint256",
          "name": "price",
          "type": "uint256"
        },
        {
          "internalType": "uint256",
          "name": "timestamp",
          "type": "uint256"
        }
      ],
      "stateMutability": "view",
      "type": "function"
    },
    {
      "inputs": [],
      "name": "renounceOwnership",
      "outputs": [],
      "stateMutability": "nonpayable",
      "type": "function"
    },
    {
      "inputs": [],
      "name": "royaltiesReceiver",
      "outputs": [
        {
          "internalType": "address",
          "name": "",
          "type": "address"
        }
      ],
      "stateMutability": "view",
      "type": "function"
    },
    {
      "inputs": [],
      "name": "royaltyBps",
      "outputs": [
        {
          "internalType": "uint96",
          "name": "",
          "type": "uint96"
        }
      ],
      "stateMutability": "view",
      "type": "function"
    },
    {
      "inputs": [
        {
          "internalType": "address",
          "name": "from",
          "type": "address"
        },
        {
          "internalType": "address",
          "name": "to",
          "type": "address"
        },
        {
          "internalType": "uint256",
          "name": "tokenId",
          "type": "uint256"
        }
      ],
      "name": "safeTransferFrom",
      "outputs": [],
      "stateMutability": "nonpayable",
      "type": "function"
    },
    {
      "inputs": [
        {
          "internalType": "address",
          "name": "from",
          "type": "address"
        },
        {
          "internalType": "address",
          "name": "to",
          "type": "address"
        },
        {
          "internalType": "uint256",
          "name": "tokenId",
          "type": "uint256"
        },
        {
          "internalType": "bytes",
          "name": "data",
          "type": "bytes"
        }
      ],
      "name": "safeTransferFrom",
      "outputs": [],
      "stateMutability": "nonpayable",
      "type": "function"
    },
    {
      "inputs": [
        {
          "internalType": "uint256",
          "name": "",
          "type": "uint256"
        }
      ],
      "name": "scrollValues",
      "outputs": [
        {
          "internalType": "uint256",
          "name": "",
          "type": "uint256"
        }
      ],
      "stateMutability": "view",
      "type": "function"
    },
    {
      "inputs": [
        {
          "internalType": "address",
          "name": "operator",
          "type": "address"
        },
        {
          "internalType": "bool",
          "name": "approved",
          "type": "bool"
        }
      ],
      "name": "setApprovalForAll",
      "outputs": [],
      "stateMutability": "nonpayable",
      "type": "function"
    },
    {
      "inputs": [
        {
          "internalType": "bytes4",
          "name": "interfaceId",
          "type": "bytes4"
        }
      ],
      "name": "supportsInterface",
      "outputs": [
        {
          "internalType": "bool",
          "name": "",
          "type": "bool"
        }
      ],
      "stateMutability": "view",
      "type": "function"
    },
    {
      "inputs": [],
      "name": "symbol",
      "outputs": [
        {
          "internalType": "string",
          "name": "",
          "type": "string"
        }
      ],
      "stateMutability": "view",
      "type": "function"
    },
    {
      "inputs": [
        {
          "internalType": "uint256",
          "name": "tokenId",
          "type": "uint256"
        }
      ],
      "name": "tokenURI",
      "outputs": [
        {
          "internalType": "string",
          "name": "",
          "type": "string"
        }
      ],
      "stateMutability": "view",
      "type": "function"
    },
    {
      "inputs": [
        {
          "internalType": "address",
          "name": "from",
          "type": "address"
        },
        {
          "internalType": "address",
          "name": "to",
          "type": "address"
        },
        {
          "internalType": "uint256",
          "name": "tokenId",
          "type": "uint256"
        }
      ],
      "name": "transferFrom",
      "outputs": [],
      "stateMutability": "nonpayable",
      "type": "function"
    },
    {
      "inputs": [
        {
          "internalType": "address",
          "name": "newOwner",
          "type": "address"
        }
      ],
      "name": "transferOwnership",
      "outputs": [],
      "stateMutability": "nonpayable",
      "type": "function"
    }
  ],
  "bytecode": "0x608060405260006008553480156200001657600080fd5b506040516200224138038062002241833981016040819052620000399162000198565b8181600062000049838262000291565b50600162000058828262000291565b505050620000756200006f6200007d60201b60201c565b62000081565b50506200035d565b3390565b600780546001600160a01b038381166001600160a01b0319831681179093556040519116919082907f8be0079c531659141344cd1fd0a4f28419497f9722a3daafe3b4186f6b6457e090600090a35050565b634e487b7160e01b600052604160045260246000fd5b600082601f830112620000fb57600080fd5b81516001600160401b0380821115620001185762000118620000d3565b604051601f8301601f19908116603f01168101908282118183101715620001435762000143620000d3565b816040528381526020925086838588010111156200016057600080fd5b600091505b8382101562000184578582018301518183018401529082019062000165565b600093810190920192909252949350505050565b60008060408385031215620001ac57600080fd5b82516001600160401b0380821115620001c457600080fd5b620001d286838701620000e9565b93506020850151915080821115620001e957600080fd5b50620001f885828601620000e9565b9150509250929050565b600181811c908216806200021757607f821691505b6020821081036200023857634e487b7160e01b600052602260045260246000fd5b50919050565b601f8211156200028c57600081815260208120601f850160051c81016020861015620002675750805b601f850160051c820191505b81811015620002885782815560010162000273565b5050505b505050565b81516001600160401b03811115620002ad57620002ad620000d3565b620002c581620002be845462000202565b846200023e565b602080601f831160018114620002fd5760008415620002e45750858301515b600019600386901b1c1916600185901b17855562000288565b600085815260208120601f198616915b828110156200032e578886015182559484019460019091019084016200030d565b50858210156200034d5787850151600019600388901b60f8161c191681555b5050505050600190811b01905550565b611ed4806200036d6000396000f3fe608060405234801561001057600080fd5b50600436106101735760003560e01c80638da5cb5b116100de578063c87b56dd11610097578063e68aefc911610071578063e68aefc914610366578063e985e9c514610379578063f2fde38b1461038c578063fe97193c1461039f57600080fd5b8063c87b56dd1461032d578063cb87bcf814610340578063d0def5211461035357600080fd5b80638da5cb5b1461029f57806395d89b41146102b0578063a22cb465146102b8578063a3a51bd5146102cb578063b88d4fde146102de578063c63adb2b146102f157600080fd5b806323b872dd1161013057806323b872dd1461022a57806342842e0e1461023d5780636352211e1461025057806370a0823114610263578063715018a614610284578063841c8ac11461028c57600080fd5b806301ffc9a71461017857806306fdde03146101a0578063081812fc146101b5578063095ea7b3146101e057806311ad097b146101f5578063185c7c6c14610208575b600080fd5b61018b61018636600461175a565b6103bf565b60405190151581526020015b60405180910390f35b6101a86103ea565b60405161019791906117c7565b6101c86101c33660046117da565b61047c565b6040516001600160a01b039091168152602001610197565b6101f36101ee36600461180f565b6104a3565b005b6101f36102033660046118e5565b6105bd565b61021b61021636600461195c565b6106c8565b6040516101979392919061197e565b6101f36102383660046119a3565b610843565b6101f361024b3660046119a3565b610874565b6101c861025e3660046117da565b61088f565b6102766102713660046119df565b6108ef565b604051908152602001610197565b6101f3610975565b61027661029a3660046117da565b610989565b6007546001600160a01b03166101c8565b6101a86109c3565b6101f36102c63660046119fa565b6109d2565b6009546101c8906001600160a01b031681565b6101f36102ec366004611a36565b6109e1565b60095461031090600160a01b90046bffffffffffffffffffffffff1681565b6040516bffffffffffffffffffffffff9091168152602001610197565b6101a861033b3660046117da565b610a19565b61027661034e3660046117da565b610b29565b6101f3610361366004611aa6565b610b63565b61021b61037436600461195c565b610bde565b61018b610387366004611af4565b610cad565b6101f361039a3660046119df565b610cdb565b6102766103ad3660046117da565b600b6020526000908152604090205481565b60006001600160e01b03198216632483248360e11b14806103e457506103e482610d54565b92915050565b6060600080546103f990611b27565b80601f016020809104026020016040519081016040528092919081815260200182805461042590611b27565b80156104725780601f1061044757610100808354040283529160200191610472565b820191906000526020600020905b81548152906001019060200180831161045557829003601f168201915b5050505050905090565b600061048782610da4565b506000908152600460205260409020546001600160a01b031690565b60006104ae8261088f565b9050806001600160a01b0316836001600160a01b0316036105205760405162461bcd60e51b815260206004820152602160248201527f4552433732313a20617070726f76616c20746f2063757272656e74206f776e656044820152603960f91b60648201526084015b60405180910390fd5b336001600160a01b038216148061053c575061053c8133610cad565b6105ae5760405162461bcd60e51b815260206004820152603d60248201527f4552433732313a20617070726f76652063616c6c6572206973206e6f7420746f60448201527f6b656e206f776e6572206f7220617070726f76656420666f7220616c6c0000006064820152608401610517565b6105b88383610df4565b505050565b6105c5610e62565b6105ce84610ebc565b6105ea5760405162461bcd60e51b815260040161051790611b61565b6000848152600a602090815260408083208151606081018352878152808401879052429281019290925280546001810182559084529190922082516003909202019081906106389082611bde565b506020820151816001015560408201518160020155505081600b600086815260200190815260200160002060008282546106729190611cb4565b9091555050805115610688576106888482610ed9565b837f7e80063e37290fdb3507e356c675aa6e80797f0acc3efc8d786d28fb477dfdfb84846040516106ba929190611cc7565b60405180910390a250505050565b60606000806106d685610ebc565b6106f25760405162461bcd60e51b815260040161051790611b61565b6000858152600a602052604090205484106107455760405162461bcd60e51b8152602060048201526013602482015272496e646578206f7574206f6620626f756e647360681b6044820152606401610517565b6000858152600a6020526040812080548690811061076557610765611ce9565b906000526020600020906003020160405180606001604052908160008201805461078e90611b27565b80601f01602080910402602001604051908101604052809291908181526020018280546107ba90611b27565b80156108075780601f106107dc57610100808354040283529160200191610807565b820191906000526020600020905b8154815290600101906020018083116107ea57829003601f168201915b50505050508152602001600182015481526020016002820154815250509050806000015181602001518260400151935093509350509250925092565b61084d3382610f95565b6108695760405162461bcd60e51b815260040161051790611cff565b6105b8838383610ff3565b6105b8838383604051806020016040528060008152506109e1565b6000818152600260205260408120546001600160a01b0316806103e45760405162461bcd60e51b8152602060048201526018602482015277115490cdcc8c4e881a5b9d985b1a59081d1bdad95b88125160421b6044820152606401610517565b60006001600160a01b0382166109595760405162461bcd60e51b815260206004820152602960248201527f4552433732313a2061646472657373207a65726f206973206e6f7420612076616044820152683634b21037bbb732b960b91b6064820152608401610517565b506001600160a01b031660009081526003602052604090205490565b61097d610e62565b6109876000611157565b565b600061099482610ebc565b6109b05760405162461bcd60e51b815260040161051790611b61565b506000908152600a602052604090205490565b6060600180546103f990611b27565b6109dd3383836111a9565b5050565b6109eb3383610f95565b610a075760405162461bcd60e51b815260040161051790611cff565b610a1384848484611277565b50505050565b6060610a2482610da4565b60008281526006602052604081208054610a3d90611b27565b80601f0160208091040260200160405190810160405280929190818152602001828054610a6990611b27565b8015610ab65780601f10610a8b57610100808354040283529160200191610ab6565b820191906000526020600020905b815481529060010190602001808311610a9957829003601f168201915b505050505090506000610ad460408051602081019091526000815290565b90508051600003610ae6575092915050565b815115610b18578082604051602001610b00929190611d4c565b60405160208183030381529060405292505050919050565b610b21846112aa565b949350505050565b6000610b3482610ebc565b610b505760405162461bcd60e51b815260040161051790611b61565b506000908152600b602052604090205490565b610b6b610e62565b6008805460009182610b7c83611d7b565b919050559050610b8c838261131e565b610b968183610ed9565b826001600160a01b03167fe308ea457d0030d25e1b86a02e17a5152105d3804fef7e9149f569fde8baa6df8284604051610bd1929190611d94565b60405180910390a2505050565b600a6020528160005260406000208181548110610bfa57600080fd5b906000526020600020906003020160009150915050806000018054610c1e90611b27565b80601f0160208091040260200160405190810160405280929190818152602001828054610c4a90611b27565b8015610c975780601f10610c6c57610100808354040283529160200191610c97565b820191906000526020600020905b815481529060010190602001808311610c7a57829003601f168201915b5050505050908060010154908060020154905083565b6001600160a01b03918216600090815260056020908152604080832093909416825291909152205460ff1690565b610ce3610e62565b6001600160a01b038116610d485760405162461bcd60e51b815260206004820152602660248201527f4f776e61626c653a206e6577206f776e657220697320746865207a65726f206160448201526564647265737360d01b6064820152608401610517565b610d5181611157565b50565b60006001600160e01b031982166380ac58cd60e01b1480610d8557506001600160e01b03198216635b5e139f60e01b145b806103e457506301ffc9a760e01b6001600160e01b03198316146103e4565b610dad81610ebc565b610d515760405162461bcd60e51b8152602060048201526018602482015277115490cdcc8c4e881a5b9d985b1a59081d1bdad95b88125160421b6044820152606401610517565b600081815260046020526040902080546001600160a01b0319166001600160a01b0384169081179091558190610e298261088f565b6001600160a01b03167f8c5be1e5ebec7d5bd14f71427d1e84f3dd0314c0f7b2291e5b200ac8c7c3b92560405160405180910390a45050565b6007546001600160a01b031633146109875760405162461bcd60e51b815260206004820181905260248201527f4f776e61626c653a2063616c6c6572206973206e6f7420746865206f776e65726044820152606401610517565b6000908152600260205260409020546001600160a01b0316151590565b610ee282610ebc565b610f455760405162461bcd60e51b815260206004820152602e60248201527f45524337323155524953746f726167653a2055524920736574206f66206e6f6e60448201526d32bc34b9ba32b73a103a37b5b2b760911b6064820152608401610517565b6000828152600660205260409020610f5d8282611bde565b506040518281527ff8e1a15aba9398e019f0b49df1a4fde98ee17ae345cb5f6b5e2c27f5033e8ce79060200160405180910390a15050565b600080610fa18361088f565b9050806001600160a01b0316846001600160a01b03161480610fc85750610fc88185610cad565b80610b215750836001600160a01b0316610fe18461047c565b6001600160a01b031614949350505050565b826001600160a01b03166110068261088f565b6001600160a01b03161461102c5760405162461bcd60e51b815260040161051790611dad565b6001600160a01b03821661108e5760405162461bcd60e51b8152602060048201526024808201527f4552433732313a207472616e7366657220746f20746865207a65726f206164646044820152637265737360e01b6064820152608401610517565b826001600160a01b03166110a18261088f565b6001600160a01b0316146110c75760405162461bcd60e51b815260040161051790611dad565b600081815260046020908152604080832080546001600160a01b03199081169091556001600160a01b0387811680865260038552838620805460001901905590871680865283862080546001019055868652600290945282852080549092168417909155905184937fddf252ad1be2c89b69c2b068fc378daa952ba7f163c4a11628f55a4df523b3ef91a4505050565b600780546001600160a01b038381166001600160a01b0319831681179093556040519116919082907f8be0079c531659141344cd1fd0a4f28419497f9722a3daafe3b4186f6b6457e090600090a35050565b816001600160a01b0316836001600160a01b03160361120a5760405162461bcd60e51b815260206004820152601960248201527f4552433732313a20617070726f766520746f2063616c6c6572000000000000006044820152606401610517565b6001600160a01b03838116600081815260056020908152604080832094871680845294825291829020805460ff191686151590811790915591519182527f17307eab39ab6107e8899845ad3d59bd9653f200f220920489ca2b5937696c31910160405180910390a3505050565b611282848484610ff3565b61128e84848484611338565b610a135760405162461bcd60e51b815260040161051790611df2565b60606112b582610da4565b60006112cc60408051602081019091526000815290565b905060008151116112ec5760405180602001604052806000815250611317565b806112f684611439565b604051602001611307929190611d4c565b6040516020818303038152906040525b9392505050565b6109dd8282604051806020016040528060008152506114cc565b60006001600160a01b0384163b1561142e57604051630a85bd0160e11b81526001600160a01b0385169063150b7a029061137c903390899088908890600401611e44565b6020604051808303816000875af19250505080156113b7575060408051601f3d908101601f191682019092526113b491810190611e81565b60015b611414573d8080156113e5576040519150601f19603f3d011682016040523d82523d6000602084013e6113ea565b606091505b50805160000361140c5760405162461bcd60e51b815260040161051790611df2565b805181602001fd5b6001600160e01b031916630a85bd0160e11b149050610b21565b506001949350505050565b60606000611446836114ff565b600101905060008167ffffffffffffffff81111561146657611466611839565b6040519080825280601f01601f191660200182016040528015611490576020820181803683370190505b5090508181016020015b600019016f181899199a1a9b1b9c1cb0b131b232b360811b600a86061a8153600a850494508461149a57509392505050565b6114d683836115d7565b6114e36000848484611338565b6105b85760405162461bcd60e51b815260040161051790611df2565b60008072184f03e93ff9f4daa797ed6e38ed64bf6a1f0160401b831061153e5772184f03e93ff9f4daa797ed6e38ed64bf6a1f0160401b830492506040015b6d04ee2d6d415b85acef8100000000831061156a576d04ee2d6d415b85acef8100000000830492506020015b662386f26fc10000831061158857662386f26fc10000830492506010015b6305f5e10083106115a0576305f5e100830492506008015b61271083106115b457612710830492506004015b606483106115c6576064830492506002015b600a83106103e45760010192915050565b6001600160a01b03821661162d5760405162461bcd60e51b815260206004820181905260248201527f4552433732313a206d696e7420746f20746865207a65726f20616464726573736044820152606401610517565b61163681610ebc565b156116835760405162461bcd60e51b815260206004820152601c60248201527f4552433732313a20746f6b656e20616c7265616479206d696e746564000000006044820152606401610517565b61168c81610ebc565b156116d95760405162461bcd60e51b815260206004820152601c60248201527f4552433732313a20746f6b656e20616c7265616479206d696e746564000000006044820152606401610517565b6001600160a01b038216600081815260036020908152604080832080546001019055848352600290915280822080546001600160a01b0319168417905551839291907fddf252ad1be2c89b69c2b068fc378daa952ba7f163c4a11628f55a4df523b3ef908290a45050565b6001600160e01b031981168114610d5157600080fd5b60006020828403121561176c57600080fd5b813561131781611744565b60005b8381101561179257818101518382015260200161177a565b50506000910152565b600081518084526117b3816020860160208601611777565b601f01601f19169290920160200192915050565b602081526000611317602083018461179b565b6000602082840312156117ec57600080fd5b5035919050565b80356001600160a01b038116811461180a57600080fd5b919050565b6000806040838503121561182257600080fd5b61182b836117f3565b946020939093013593505050565b634e487b7160e01b600052604160045260246000fd5b600067ffffffffffffffff8084111561186a5761186a611839565b604051601f8501601f19908116603f0116810190828211818310171561189257611892611839565b816040528093508581528686860111156118ab57600080fd5b858560208301376000602087830101525050509392505050565b600082601f8301126118d657600080fd5b6113178383356020850161184f565b600080600080608085870312156118fb57600080fd5b84359350602085013567ffffffffffffffff8082111561191a57600080fd5b611926888389016118c5565b945060408701359350606087013591508082111561194357600080fd5b50611950878288016118c5565b91505092959194509250565b6000806040838503121561196f57600080fd5b50508035926020909101359150565b606081526000611991606083018661179b565b60208301949094525060400152919050565b6000806000606084860312156119b857600080fd5b6119c1846117f3565b92506119cf602085016117f3565b9150604084013590509250925092565b6000602082840312156119f157600080fd5b611317826117f3565b60008060408385031215611a0d57600080fd5b611a16836117f3565b915060208301358015158114611a2b57600080fd5b809150509250929050565b60008060008060808587031215611a4c57600080fd5b611a55856117f3565b9350611a63602086016117f3565b925060408501359150606085013567ffffffffffffffff811115611a8657600080fd5b8501601f81018713611a9757600080fd5b6119508782356020840161184f565b60008060408385031215611ab957600080fd5b611ac2836117f3565b9150602083013567ffffffffffffffff811115611ade57600080fd5b611aea858286016118c5565b9150509250929050565b60008060408385031215611b0757600080fd5b611b10836117f3565b9150611b1e602084016117f3565b90509250929050565b600181811c90821680611b3b57607f821691505b602082108103611b5b57634e487b7160e01b600052602260045260246000fd5b50919050565b60208082526015908201527414d8dc9bdb1b08191bd95cc81b9bdd08195e1a5cdd605a1b604082015260600190565b601f8211156105b857600081815260208120601f850160051c81016020861015611bb75750805b601f850160051c820191505b81811015611bd657828155600101611bc3565b505050505050565b815167ffffffffffffffff811115611bf857611bf8611839565b611c0c81611c068454611b27565b84611b90565b602080601f831160018114611c415760008415611c295750858301515b600019600386901b1c1916600185901b178555611bd6565b600085815260208120601f198616915b82811015611c7057888601518255948401946001909101908401611c51565b5085821015611c8e5787850151600019600388901b60f8161c191681555b5050505050600190811b01905550565b634e487b7160e01b600052601160045260246000fd5b808201808211156103e4576103e4611c9e565b604081526000611cda604083018561179b565b90508260208301529392505050565b634e487b7160e01b600052603260045260246000fd5b6020808252602d908201527f4552433732313a2063616c6c6572206973206e6f7420746f6b656e206f776e6560408201526c1c881bdc88185c1c1c9bdd9959609a1b606082015260800190565b60008351611d5e818460208801611777565b835190830190611d72818360208801611777565b01949350505050565b600060018201611d8d57611d8d611c9e565b5060010190565b828152604060208201526000610b21604083018461179b565b60208082526025908201527f4552433732313a207472616e736665722066726f6d20696e636f72726563742060408201526437bbb732b960d91b606082015260800190565b60208082526032908201527f4552433732313a207472616e7366657220746f206e6f6e20455243373231526560408201527131b2b4bb32b91034b6b83632b6b2b73a32b960711b606082015260800190565b6001600160a01b0385811682528416602082015260408101839052608060608201819052600090611e779083018461179b565b9695505050505050565b600060208284031215611e9357600080fd5b81516113178161174456fea2646970667358221220cebd31e86b5166c604f4c0028f3272bd787d6034d617f29326ab76222c283d5964736f6c63430008140033",
  "linkReferences": {},
  "deployedLinkReferences": {}
}