{
  "_format": "hh-sol-artifact-1",
  "contractName": "PromptScrollNFT",
  "sourceName": "contracts/PromptScrollNFT.sol",
  "abi": [
    {
      "inputs": [],
      "stateMutability": "nonpayable",
      "type": "constructor"
    },
    {
      "anonymous": false,
      "inputs": [
        {
          "indexed": true,
          "internalType": "address",
          "name": "owner",
          "type": "address"
        },
        {
          "indexed": true,
          "internalType": "address",
          "name": "approved",
          "type": "address"
        },
        {
          "indexed": true,
          "internalType": "uint256",
          "name": "tokenId",
          "type": "uint256"
        }
      ],
      "name": "Approval",
      "type": "event"
    },
    {
      "anonymous": false,
      "inputs": [
        {
          "indexed": true,
          "internalType": "address",
          "name": "owner",
          "type": "address"
        },
        {
          "indexed": true,
          "internalType": "address",
          "name": "operator",
          "type": "address"
        },
        {
          "indexed": false,
          "internalType": "bool",
          "name": "approved",
          "type": "bool"
        }
      ],
      "name": "ApprovalForAll",
      "type": "event"
    },
    {
      "anonymous": false,
      "inputs": [
        {
          "indexed": false,
          "internalType": "uint256",
          "name": "_fromTokenId",
          "type": "uint256"
        },
        {
          "indexed": false,
          "internalType": "uint256",
          "name": "_toTokenId",
          "type": "uint256"
        }
      ],
      "name": "BatchMetadataUpdate",
      "type": "event"
    },
    {
      "anonymous": false,
      "inputs": [
        {
          "indexed": false,
          "internalType": "uint256",
          "name": "_tokenId",
          "type": "uint256"
        }
      ],
      "name": "MetadataUpdate",
      "type": "event"
    },
    {
      "anonymous": false,
      "inputs": [
        {
          "indexed": true,
          "internalType": "address",
          "name": "previousOwner",
          "type": "address"
        },
        {
          "indexed": true,
          "internalType": "address",
          "name": "newOwner",
          "type": "address"
        }
      ],
      "name": "OwnershipTransferred",
      "type": "event"
    },
    {
      "anonymous": false,
      "inputs": [
        {
          "indexed": true,
          "internalType": "uint256",
          "name": "tokenId",
          "type": "uint256"
        },
        {
          "indexed": false,
          "internalType": "string",
          "name": "content",
          "type": "string"
        },
        {
          "indexed": false,
          "internalType": "uint256",
          "name": "price",
          "type": "uint256"
        }
      ],
      "name": "PromptAdded",
      "type": "event"
    },
    {
      "anonymous": false,
      "inputs": [
        {
          "indexed": true,
          "internalType": "address",
          "name": "to",
          "type": "address"
        },
        {
          "indexed": false,
          "internalType": "uint256",
          "name": "tokenId",
          "type": "uint256"
        },
        {
          "indexed": false,
          "internalType": "string",
          "name": "initialURI",
          "type": "string"
        }
      ],
      "name": "ScrollMinted",
      "type": "event"
    },
    {
      "anonymous": false,
      "inputs": [
        {
          "indexed": true,
          "internalType": "address",
          "name": "from",
          "type": "address"
        },
        {
          "indexed": true,
          "internalType": "address",
          "name": "to",
          "type": "address"
        },
        {
          "indexed": true,
          "internalType": "uint256",
          "name": "tokenId",
          "type": "uint256"
        }
      ],
      "name": "Transfer",
      "type": "event"
    },
    {
      "inputs": [
        {
          "internalType": "uint256",
          "name": "tokenId",
          "type": "uint256"
        },
        {
          "internalType": "string",
          "name": "content",
          "type": "string"
        },
        {
          "internalType": "uint256",
          "name": "price",
          "type": "uint256"
        },
        {
          "internalType": "string",
          "name": "newTokenURI",
          "type": "string"
        }
      ],
      "name": "addPromptToScroll",
      "outputs": [],
      "stateMutability": "nonpayable",
      "type": "function"
    },
    {
      "inputs": [
        {
          "internalType": "address",
          "name": "to",
          "type": "address"
        },
        {
          "internalType": "uint256",
          "name": "tokenId",
          "type": "uint256"
        }
      ],
      "name": "approve",
      "outputs": [],
      "stateMutability": "nonpayable",
      "type": "function"
    },
    {
      "inputs": [
        {
          "internalType": "address",
          "name": "owner",
          "type": "address"
        }
      ],
      "name": "balanceOf",
      "outputs": [
        {
          "internalType": "uint256",
          "name": "",
          "type": "uint256"
        }
      ],
      "stateMutability": "view",
      "type": "function"
    },
    {
      "inputs": [
        {
          "internalType": "uint256",
          "name": "tokenId",
          "type": "uint256"
        }
      ],
      "name": "getApproved",
      "outputs": [
        {
          "internalType": "address",
          "name": "",
          "type": "address"
        }
      ],
      "stateMutability": "view",
      "type": "function"
    },
    {
      "inputs": [
        {
          "internalType": "uint256",
          "name": "tokenId",
          "type": "uint256"
        },
        {
          "internalType": "uint256",
          "name": "index",
          "type": "uint256"
        }
      ],
      "name": "getPromptAt",
      "outputs": [
        {
          "internalType": "string",
          "name": "",
          "type": "string"
        },
        {
          "internalType": "uint256",
          "name": "",
          "type": "uint256"
        },
        {
          "internalType": "uint256",
          "name": "",
          "type": "uint256"
        }
      ],
      "stateMutability": "view",
      "type": "function"
    },
    {
      "inputs": [
        {
          "internalType": "uint256",
          "name": "tokenId",
          "type": "uint256"
        }
      ],
      "name": "getPromptCount",
      "outputs": [
        {
          "internalType": "uint256",
          "name": "",
          "type": "uint256"
        }
      ],
      "stateMutability": "view",
      "type": "function"
    },
    {
      "inputs": [
        {
          "internalType": "uint256",
          "name": "tokenId",
          "type": "uint256"
        }
      ],
      "name": "getScrollValue",
      "outputs": [
        {
          "internalType": "uint256",
          "name": "",
          "type": "uint256"
        }
      ],
      "stateMutability": "view",
      "type": "function"
    },
    {
      "inputs": [
        {
          "internalType": "address",
          "name": "owner",
          "type": "address"
        },
        {
          "internalType": "address",
          "name": "operator",
          "type": "address"
        }
      ],
      "name": "isApprovedForAll",
      "outputs": [
        {
          "internalType": "bool",
          "name": "",
          "type": "bool"
        }
      ],
      "stateMutability": "view",
      "type": "function"
    },
    {
      "inputs": [
        {
          "internalType": "address",
          "name": "to",
          "type": "address"
        },
        {
          "internalType": "string",
          "name": "tokenURI",
          "type": "string"
        }
      ],
      "name": "mintScroll",
      "outputs": [
        {
          "internalType": "uint256",
          "name": "",
          "type": "uint256"
        }
      ],
      "stateMutability": "nonpayable",
      "type": "function"
    },
    {
      "inputs": [],
      "name": "name",
      "outputs": [
        {
          "internalType": "string",
          "name": "",
          "type": "string"
        }
      ],
      "stateMutability": "view",
      "type": "function"
    },
    {
      "inputs": [],
      "name": "owner",
      "outputs": [
        {
          "internalType": "address",
          "name": "",
          "type": "address"
        }
      ],
      "stateMutability": "view",
      "type": "function"
    },
    {
      "inputs": [
        {
          "internalType": "uint256",
          "name": "tokenId",
          "type": "uint256"
        }
      ],
      "name": "ownerOf",
      "outputs": [
        {
          "internalType": "address",
          "name": "",
          "type": "address"
        }
      ],
      "stateMutability": "view",
      "type": "function"
    },
    {
      "inputs": [
        {
          "internalType": "uint256",
          "name": "",
          "type": "uint256"
        },
        {
          "internalType": "uint256",
          "name": "",
          "type": "uint256"
        }
      ],
      "name": "promptScrolls",
      "outputs": [
        {
          "internalType": "string",
          "name": "content",
          "type": "string"
        },
        {
          "internalType": "uint256",
          "name": "price",
          "type": "uint256"
        },
        {
          "internalType": "uint256",
          "name": "timestamp",
          "type": "uint256"
        }
      ],
      "stateMutability": "view",
      "type": "function"
    },
    {
      "inputs": [],
      "name": "renounceOwnership",
      "outputs": [],
      "stateMutability": "nonpayable",
      "type": "function"
    },
    {
      "inputs": [
        {
          "internalType": "address",
          "name": "from",
          "type": "address"
        },
        {
          "internalType": "address",
          "name": "to",
          "type": "address"
        },
        {
          "internalType": "uint256",
          "name": "tokenId",
          "type": "uint256"
        }
      ],
      "name": "safeTransferFrom",
      "outputs": [],
      "stateMutability": "nonpayable",
      "type": "function"
    },
    {
      "inputs": [
        {
          "internalType": "address",
          "name": "from",
          "type": "address"
        },
        {
          "internalType": "address",
          "name": "to",
          "type": "address"
        },
        {
          "internalType": "uint256",
          "name": "tokenId",
          "type": "uint256"
        },
        {
          "internalType": "bytes",
          "name": "data",
          "type": "bytes"
        }
      ],
      "name": "safeTransferFrom",
      "outputs": [],
      "stateMutability": "nonpayable",
      "type": "function"
    },
    {
      "inputs": [
        {
          "internalType": "uint256",
          "name": "",
          "type": "uint256"
        }
      ],
      "name": "scrollValues",
      "outputs": [
        {
          "internalType": "uint256",
          "name": "",
          "type": "uint256"
        }
      ],
      "stateMutability": "view",
      "type": "function"
    },
    {
      "inputs": [
        {
          "internalType": "address",
          "name": "operator",
          "type": "address"
        },
        {
          "internalType": "bool",
          "name": "approved",
          "type": "bool"
        }
      ],
      "name": "setApprovalForAll",
      "outputs": [],
      "stateMutability": "nonpayable",
      "type": "function"
    },
    {
      "inputs": [
        {
          "internalType": "bytes4",
          "name": "interfaceId",
          "type": "bytes4"
        }
      ],
      "name": "supportsInterface",
      "outputs": [
        {
          "internalType": "bool",
          "name": "",
          "type": "bool"
        }
      ],
      "stateMutability": "view",
      "type": "function"
    },
    {
      "inputs": [],
      "name": "symbol",
      "outputs": [
        {
          "internalType": "string",
          "name": "",
          "type": "string"
        }
      ],
      "stateMutability": "view",
      "type": "function"
    },
    {
      "inputs": [
        {
          "internalType": "uint256",
          "name": "tokenId",
          "type": "uint256"
        }
      ],
      "name": "tokenURI",
      "outputs": [
        {
          "internalType": "string",
          "name": "",
          "type": "string"
        }
      ],
      "stateMutability": "view",
      "type": "function"
    },
    {
      "inputs": [
        {
          "internalType": "address",
          "name": "from",
          "type": "address"
        },
        {
          "internalType": "address",
          "name": "to",
          "type": "address"
        },
        {
          "internalType": "uint256",
          "name": "tokenId",
          "type": "uint256"
        }
      ],
      "name": "transferFrom",
      "outputs": [],
      "stateMutability": "nonpayable",
      "type": "function"
    },
    {
      "inputs": [
        {
          "internalType": "address",
          "name": "newOwner",
          "type": "address"
        }
      ],
      "name": "transferOwnership",
      "outputs": [],
      "stateMutability": "nonpayable",
      "type": "function"
    }
  ],
  "bytecode": "0x60806040523480156200001157600080fd5b506040518060400160405280600c81526020016b141c9bdb5c1d14d8dc9bdb1b60a21b8152506040518060400160405280600681526020016514d0d493d31360d21b815250816000908162000067919062000194565b50600162000076828262000194565b505050620000936200008d6200009960201b60201c565b6200009d565b62000260565b3390565b600780546001600160a01b038381166001600160a01b0319831681179093556040519116919082907f8be0079c531659141344cd1fd0a4f28419497f9722a3daafe3b4186f6b6457e090600090a35050565b634e487b7160e01b600052604160045260246000fd5b600181811c908216806200011a57607f821691505b6020821081036200013b57634e487b7160e01b600052602260045260246000fd5b50919050565b601f8211156200018f57600081815260208120601f850160051c810160208610156200016a5750805b601f850160051c820191505b818110156200018b5782815560010162000176565b5050505b505050565b81516001600160401b03811115620001b057620001b0620000ef565b620001c881620001c1845462000105565b8462000141565b602080601f831160018114620002005760008415620001e75750858301515b600019600386901b1c1916600185901b1785556200018b565b600085815260208120601f198616915b82811015620002315788860151825594840194600190910190840162000210565b5085821015620002505787850151600019600388901b60f8161c191681555b5050505050600190811b01905550565b611e6180620002706000396000f3fe608060405234801561001057600080fd5b506004361061014d5760003560e01c806374b3f982116100c3578063c87b56dd1161007c578063c87b56dd146102cb578063cb87bcf8146102de578063e68aefc9146102f1578063e985e9c514610304578063f2fde38b14610340578063fe97193c1461035357600080fd5b806374b3f98214610266578063841c8ac1146102795780638da5cb5b1461028c57806395d89b411461029d578063a22cb465146102a5578063b88d4fde146102b857600080fd5b8063185c7c6c11610115578063185c7c6c146101e257806323b872dd1461020457806342842e0e146102175780636352211e1461022a57806370a082311461023d578063715018a61461025e57600080fd5b806301ffc9a71461015257806306fdde031461017a578063081812fc1461018f578063095ea7b3146101ba57806311ad097b146101cf575b600080fd5b610165610160366004611708565b610373565b60405190151581526020015b60405180910390f35b61018261039e565b6040516101719190611775565b6101a261019d366004611788565b610430565b6040516001600160a01b039091168152602001610171565b6101cd6101c83660046117bd565b610457565b005b6101cd6101dd366004611893565b610571565b6101f56101f036600461190a565b61067c565b6040516101719392919061192c565b6101cd610212366004611951565b6107f7565b6101cd610225366004611951565b610828565b6101a2610238366004611788565b610843565b61025061024b36600461198d565b6108a3565b604051908152602001610171565b6101cd610929565b6102506102743660046119a8565b61093d565b610250610287366004611788565b6109c0565b6007546001600160a01b03166101a2565b6101826109fa565b6101cd6102b33660046119f6565b610a09565b6101cd6102c6366004611a32565b610a18565b6101826102d9366004611788565b610a50565b6102506102ec366004611788565b610b60565b6101f56102ff36600461190a565b610b9a565b610165610312366004611aa2565b6001600160a01b03918216600090815260056020908152604080832093909416825291909152205460ff1690565b6101cd61034e36600461198d565b610c69565b610250610361366004611788565b600a6020526000908152604090205481565b60006001600160e01b03198216632483248360e11b1480610398575061039882610ce2565b92915050565b6060600080546103ad90611ad5565b80601f01602080910402602001604051908101604052809291908181526020018280546103d990611ad5565b80156104265780601f106103fb57610100808354040283529160200191610426565b820191906000526020600020905b81548152906001019060200180831161040957829003601f168201915b5050505050905090565b600061043b82610d32565b506000908152600460205260409020546001600160a01b031690565b600061046282610843565b9050806001600160a01b0316836001600160a01b0316036104d45760405162461bcd60e51b815260206004820152602160248201527f4552433732313a20617070726f76616c20746f2063757272656e74206f776e656044820152603960f91b60648201526084015b60405180910390fd5b336001600160a01b03821614806104f057506104f08133610312565b6105625760405162461bcd60e51b815260206004820152603d60248201527f4552433732313a20617070726f76652063616c6c6572206973206e6f7420746f60448201527f6b656e206f776e6572206f7220617070726f76656420666f7220616c6c00000060648201526084016104cb565b61056c8383610d82565b505050565b610579610df0565b61058284610e4a565b61059e5760405162461bcd60e51b81526004016104cb90611b0f565b60008481526009602090815260408083208151606081018352878152808401879052429281019290925280546001810182559084529190922082516003909202019081906105ec9082611b8c565b506020820151816001015560408201518160020155505081600a600086815260200190815260200160002060008282546106269190611c4c565b909155505080511561063c5761063c8482610e67565b837f7e80063e37290fdb3507e356c675aa6e80797f0acc3efc8d786d28fb477dfdfb848460405161066e929190611c6d565b60405180910390a250505050565b606060008061068a85610e4a565b6106a65760405162461bcd60e51b81526004016104cb90611b0f565b60008581526009602052604090205484106106f95760405162461bcd60e51b8152602060048201526013602482015272496e646578206f7574206f6620626f756e647360681b60448201526064016104cb565b600085815260096020526040812080548690811061071957610719611c8f565b906000526020600020906003020160405180606001604052908160008201805461074290611ad5565b80601f016020809104026020016040519081016040528092919081815260200182805461076e90611ad5565b80156107bb5780601f10610790576101008083540402835291602001916107bb565b820191906000526020600020905b81548152906001019060200180831161079e57829003601f168201915b50505050508152602001600182015481526020016002820154815250509050806000015181602001518260400151935093509350509250925092565b6108013382610f23565b61081d5760405162461bcd60e51b81526004016104cb90611ca5565b61056c838383610fa1565b61056c83838360405180602001604052806000815250610a18565b6000818152600260205260408120546001600160a01b0316806103985760405162461bcd60e51b8152602060048201526018602482015277115490cdcc8c4e881a5b9d985b1a59081d1bdad95b88125160421b60448201526064016104cb565b60006001600160a01b03821661090d5760405162461bcd60e51b815260206004820152602960248201527f4552433732313a2061646472657373207a65726f206973206e6f7420612076616044820152683634b21037bbb732b960b91b60648201526084016104cb565b506001600160a01b031660009081526003602052604090205490565b610931610df0565b61093b6000611105565b565b6000610947610df0565b610955600880546001019055565b600061096060085490565b905061096c8482611157565b6109768184610e67565b836001600160a01b03167fe308ea457d0030d25e1b86a02e17a5152105d3804fef7e9149f569fde8baa6df82856040516109b1929190611cf2565b60405180910390a29392505050565b60006109cb82610e4a565b6109e75760405162461bcd60e51b81526004016104cb90611b0f565b5060009081526009602052604090205490565b6060600180546103ad90611ad5565b610a14338383611171565b5050565b610a223383610f23565b610a3e5760405162461bcd60e51b81526004016104cb90611ca5565b610a4a8484848461123f565b50505050565b6060610a5b82610d32565b60008281526006602052604081208054610a7490611ad5565b80601f0160208091040260200160405190810160405280929190818152602001828054610aa090611ad5565b8015610aed5780601f10610ac257610100808354040283529160200191610aed565b820191906000526020600020905b815481529060010190602001808311610ad057829003601f168201915b505050505090506000610b0b60408051602081019091526000815290565b90508051600003610b1d575092915050565b815115610b4f578082604051602001610b37929190611d0b565b60405160208183030381529060405292505050919050565b610b5884611272565b949350505050565b6000610b6b82610e4a565b610b875760405162461bcd60e51b81526004016104cb90611b0f565b506000908152600a602052604090205490565b60096020528160005260406000208181548110610bb657600080fd5b906000526020600020906003020160009150915050806000018054610bda90611ad5565b80601f0160208091040260200160405190810160405280929190818152602001828054610c0690611ad5565b8015610c535780601f10610c2857610100808354040283529160200191610c53565b820191906000526020600020905b815481529060010190602001808311610c3657829003601f168201915b5050505050908060010154908060020154905083565b610c71610df0565b6001600160a01b038116610cd65760405162461bcd60e51b815260206004820152602660248201527f4f776e61626c653a206e6577206f776e657220697320746865207a65726f206160448201526564647265737360d01b60648201526084016104cb565b610cdf81611105565b50565b60006001600160e01b031982166380ac58cd60e01b1480610d1357506001600160e01b03198216635b5e139f60e01b145b8061039857506301ffc9a760e01b6001600160e01b0319831614610398565b610d3b81610e4a565b610cdf5760405162461bcd60e51b8152602060048201526018602482015277115490cdcc8c4e881a5b9d985b1a59081d1bdad95b88125160421b60448201526064016104cb565b600081815260046020526040902080546001600160a01b0319166001600160a01b0384169081179091558190610db782610843565b6001600160a01b03167f8c5be1e5ebec7d5bd14f71427d1e84f3dd0314c0f7b2291e5b200ac8c7c3b92560405160405180910390a45050565b6007546001600160a01b0316331461093b5760405162461bcd60e51b815260206004820181905260248201527f4f776e61626c653a2063616c6c6572206973206e6f7420746865206f776e657260448201526064016104cb565b6000908152600260205260409020546001600160a01b0316151590565b610e7082610e4a565b610ed35760405162461bcd60e51b815260206004820152602e60248201527f45524337323155524953746f726167653a2055524920736574206f66206e6f6e60448201526d32bc34b9ba32b73a103a37b5b2b760911b60648201526084016104cb565b6000828152600660205260409020610eeb8282611b8c565b506040518281527ff8e1a15aba9398e019f0b49df1a4fde98ee17ae345cb5f6b5e2c27f5033e8ce79060200160405180910390a15050565b600080610f2f83610843565b9050806001600160a01b0316846001600160a01b03161480610f7657506001600160a01b0380821660009081526005602090815260408083209388168352929052205460ff165b80610b585750836001600160a01b0316610f8f84610430565b6001600160a01b031614949350505050565b826001600160a01b0316610fb482610843565b6001600160a01b031614610fda5760405162461bcd60e51b81526004016104cb90611d3a565b6001600160a01b03821661103c5760405162461bcd60e51b8152602060048201526024808201527f4552433732313a207472616e7366657220746f20746865207a65726f206164646044820152637265737360e01b60648201526084016104cb565b826001600160a01b031661104f82610843565b6001600160a01b0316146110755760405162461bcd60e51b81526004016104cb90611d3a565b600081815260046020908152604080832080546001600160a01b03199081169091556001600160a01b0387811680865260038552838620805460001901905590871680865283862080546001019055868652600290945282852080549092168417909155905184937fddf252ad1be2c89b69c2b068fc378daa952ba7f163c4a11628f55a4df523b3ef91a4505050565b600780546001600160a01b038381166001600160a01b0319831681179093556040519116919082907f8be0079c531659141344cd1fd0a4f28419497f9722a3daafe3b4186f6b6457e090600090a35050565b610a148282604051806020016040528060008152506112e6565b816001600160a01b0316836001600160a01b0316036111d25760405162461bcd60e51b815260206004820152601960248201527f4552433732313a20617070726f766520746f2063616c6c65720000000000000060448201526064016104cb565b6001600160a01b03838116600081815260056020908152604080832094871680845294825291829020805460ff191686151590811790915591519182527f17307eab39ab6107e8899845ad3d59bd9653f200f220920489ca2b5937696c31910160405180910390a3505050565b61124a848484610fa1565b61125684848484611319565b610a4a5760405162461bcd60e51b81526004016104cb90611d7f565b606061127d82610d32565b600061129460408051602081019091526000815290565b905060008151116112b457604051806020016040528060008152506112df565b806112be8461141a565b6040516020016112cf929190611d0b565b6040516020818303038152906040525b9392505050565b6112f083836114ad565b6112fd6000848484611319565b61056c5760405162461bcd60e51b81526004016104cb90611d7f565b60006001600160a01b0384163b1561140f57604051630a85bd0160e11b81526001600160a01b0385169063150b7a029061135d903390899088908890600401611dd1565b6020604051808303816000875af1925050508015611398575060408051601f3d908101601f1916820190925261139591810190611e0e565b60015b6113f5573d8080156113c6576040519150601f19603f3d011682016040523d82523d6000602084013e6113cb565b606091505b5080516000036113ed5760405162461bcd60e51b81526004016104cb90611d7f565b805181602001fd5b6001600160e01b031916630a85bd0160e11b149050610b58565b506001949350505050565b606060006114278361161a565b600101905060008167ffffffffffffffff811115611447576114476117e7565b6040519080825280601f01601f191660200182016040528015611471576020820181803683370190505b5090508181016020015b600019016f181899199a1a9b1b9c1cb0b131b232b360811b600a86061a8153600a850494508461147b57509392505050565b6001600160a01b0382166115035760405162461bcd60e51b815260206004820181905260248201527f4552433732313a206d696e7420746f20746865207a65726f206164647265737360448201526064016104cb565b61150c81610e4a565b156115595760405162461bcd60e51b815260206004820152601c60248201527f4552433732313a20746f6b656e20616c7265616479206d696e7465640000000060448201526064016104cb565b61156281610e4a565b156115af5760405162461bcd60e51b815260206004820152601c60248201527f4552433732313a20746f6b656e20616c7265616479206d696e7465640000000060448201526064016104cb565b6001600160a01b038216600081815260036020908152604080832080546001019055848352600290915280822080546001600160a01b0319168417905551839291907fddf252ad1be2c89b69c2b068fc378daa952ba7f163c4a11628f55a4df523b3ef908290a45050565b60008072184f03e93ff9f4daa797ed6e38ed64bf6a1f0160401b83106116595772184f03e93ff9f4daa797ed6e38ed64bf6a1f0160401b830492506040015b6d04ee2d6d415b85acef81000000008310611685576d04ee2d6d415b85acef8100000000830492506020015b662386f26fc1000083106116a357662386f26fc10000830492506010015b6305f5e10083106116bb576305f5e100830492506008015b61271083106116cf57612710830492506004015b606483106116e1576064830492506002015b600a83106103985760010192915050565b6001600160e01b031981168114610cdf57600080fd5b60006020828403121561171a57600080fd5b81356112df816116f2565b60005b83811015611740578181015183820152602001611728565b50506000910152565b60008151808452611761816020860160208601611725565b601f01601f19169290920160200192915050565b6020815260006112df6020830184611749565b60006020828403121561179a57600080fd5b5035919050565b80356001600160a01b03811681146117b857600080fd5b919050565b600080604083850312156117d057600080fd5b6117d9836117a1565b946020939093013593505050565b634e487b7160e01b600052604160045260246000fd5b600067ffffffffffffffff80841115611818576118186117e7565b604051601f8501601f19908116603f01168101908282118183101715611840576118406117e7565b8160405280935085815286868601111561185957600080fd5b858560208301376000602087830101525050509392505050565b600082601f83011261188457600080fd5b6112df838335602085016117fd565b600080600080608085870312156118a957600080fd5b84359350602085013567ffffffffffffffff808211156118c857600080fd5b6118d488838901611873565b94506040870135935060608701359150808211156118f157600080fd5b506118fe87828801611873565b91505092959194509250565b6000806040838503121561191d57600080fd5b50508035926020909101359150565b60608152600061193f6060830186611749565b60208301949094525060400152919050565b60008060006060848603121561196657600080fd5b61196f846117a1565b925061197d602085016117a1565b9150604084013590509250925092565b60006020828403121561199f57600080fd5b6112df826117a1565b600080604083850312156119bb57600080fd5b6119c4836117a1565b9150602083013567ffffffffffffffff8111156119e057600080fd5b6119ec85828601611873565b9150509250929050565b60008060408385031215611a0957600080fd5b611a12836117a1565b915060208301358015158114611a2757600080fd5b809150509250929050565b60008060008060808587031215611a4857600080fd5b611a51856117a1565b9350611a5f602086016117a1565b925060408501359150606085013567ffffffffffffffff811115611a8257600080fd5b8501601f81018713611a9357600080fd5b6118fe878235602084016117fd565b60008060408385031215611ab557600080fd5b611abe836117a1565b9150611acc602084016117a1565b90509250929050565b600181811c90821680611ae957607f821691505b602082108103611b0957634e487b7160e01b600052602260045260246000fd5b50919050565b60208082526015908201527414d8dc9bdb1b08191bd95cc81b9bdd08195e1a5cdd605a1b604082015260600190565b601f82111561056c57600081815260208120601f850160051c81016020861015611b655750805b601f850160051c820191505b81811015611b8457828155600101611b71565b505050505050565b815167ffffffffffffffff811115611ba657611ba66117e7565b611bba81611bb48454611ad5565b84611b3e565b602080601f831160018114611bef5760008415611bd75750858301515b600019600386901b1c1916600185901b178555611b84565b600085815260208120601f198616915b82811015611c1e57888601518255948401946001909101908401611bff565b5085821015611c3c5787850151600019600388901b60f8161c191681555b5050505050600190811b01905550565b8082018082111561039857634e487b7160e01b600052601160045260246000fd5b604081526000611c806040830185611749565b90508260208301529392505050565b634e487b7160e01b600052603260045260246000fd5b6020808252602d908201527f4552433732313a2063616c6c6572206973206e6f7420746f6b656e206f776e6560408201526c1c881bdc88185c1c1c9bdd9959609a1b606082015260800190565b828152604060208201526000610b586040830184611749565b60008351611d1d818460208801611725565b835190830190611d31818360208801611725565b01949350505050565b60208082526025908201527f4552433732313a207472616e736665722066726f6d20696e636f72726563742060408201526437bbb732b960d91b606082015260800190565b60208082526032908201527f4552433732313a207472616e7366657220746f206e6f6e20455243373231526560408201527131b2b4bb32b91034b6b83632b6b2b73a32b960711b606082015260800190565b6001600160a01b0385811682528416602082015260408101839052608060608201819052600090611e0490830184611749565b9695505050505050565b600060208284031215611e2057600080fd5b81516112df816116f256fea26469706673582212201a12893736f7060214bac906a19f556e7950f1370477c1f55824e9d210b1550c64736f6c63430008140033",
  "linkReferences": {},
  "deployedLinkReferences": {}
}