{
  "_format": "hh-sol-artifact-1",
  "contractName": "SaltMorph",
  "sourceName": "contracts/SaltMorph.sol",
  "abi": [
    {
      "inputs": [
        {
          "internalType": "address",
          "name": "_epochManager",
          "type": "address"
        }
      ],
      "stateMutability": "nonpayable",
      "type": "constructor"
    },
    {
      "anonymous": false,
      "inputs": [
        {
          "indexed": true,
          "internalType": "address",
          "name": "user",
          "type": "address"
        },
        {
          "indexed": false,
          "internalType": "uint256",
          "name": "fromEpoch",
          "type": "uint256"
        },
        {
          "indexed": false,
          "internalType": "uint256",
          "name": "toEpoch",
          "type": "uint256"
        },
        {
          "indexed": false,
          "internalType": "uint256",
          "name": "burned",
          "type": "uint256"
        },
        {
          "indexed": false,
          "internalType": "uint256",
          "name": "minted",
          "type": "uint256"
        }
      ],
      "name": "Morph",
      "type": "event"
    },
    {
      "anonymous": false,
      "inputs": [
        {
          "indexed": true,
          "internalType": "address",
          "name": "previousOwner",
          "type": "address"
        },
        {
          "indexed": true,
          "internalType": "address",
          "name": "newOwner",
          "type": "address"
        }
      ],
      "name": "OwnershipTransferred",
      "type": "event"
    },
    {
      "inputs": [],
      "name": "epochManager",
      "outputs": [
        {
          "internalType": "contract EpochManager",
          "name": "",
          "type": "address"
        }
      ],
      "stateMutability": "view",
      "type": "function"
    },
    {
      "inputs": [
        {
          "internalType": "uint256",
          "name": "",
          "type": "uint256"
        }
      ],
      "name": "epochTokens",
      "outputs": [
        {
          "internalType": "contract SaltToken",
          "name": "",
          "type": "address"
        }
      ],
      "stateMutability": "view",
      "type": "function"
    },
    {
      "inputs": [
        {
          "internalType": "uint256",
          "name": "amount",
          "type": "uint256"
        }
      ],
      "name": "morph",
      "outputs": [],
      "stateMutability": "nonpayable",
      "type": "function"
    },
    {
      "inputs": [],
      "name": "owner",
      "outputs": [
        {
          "internalType": "address",
          "name": "",
          "type": "address"
        }
      ],
      "stateMutability": "view",
      "type": "function"
    },
    {
      "inputs": [
        {
          "internalType": "uint256",
          "name": "epochId",
          "type": "uint256"
        },
        {
          "internalType": "address",
          "name": "token",
          "type": "address"
        }
      ],
      "name": "registerEpochToken",
      "outputs": [],
      "stateMutability": "nonpayable",
      "type": "function"
    },
    {
      "inputs": [],
      "name": "renounceOwnership",
      "outputs": [],
      "stateMutability": "nonpayable",
      "type": "function"
    },
    {
      "inputs": [
        {
          "internalType": "address",
          "name": "newOwner",
          "type": "address"
        }
      ],
      "name": "transferOwnership",
      "outputs": [],
      "stateMutability": "nonpayable",
      "type": "function"
    }
  ],
  "bytecode": "0x608060405234801561001057600080fd5b5060405161076e38038061076e83398101604081905261002f916100ad565b6100383361005d565b600180546001600160a01b0319166001600160a01b03929092169190911790556100dd565b600080546001600160a01b038381166001600160a01b0319831681178455604051919092169283917f8be0079c531659141344cd1fd0a4f28419497f9722a3daafe3b4186f6b6457e09190a35050565b6000602082840312156100bf57600080fd5b81516001600160a01b03811681146100d657600080fd5b9392505050565b610682806100ec6000396000f3fe608060405234801561001057600080fd5b506004361061007d5760003560e01c80638da5cb5b1161005b5780638da5cb5b146100e457806397414626146100f5578063e2d2bfe314610108578063f2fde38b1461011b57600080fd5b806337abaffc14610082578063481f7ad014610097578063715018a6146100dc575b600080fd5b610095610090366004610561565b61012e565b005b6100c06100a536600461058d565b6002602052600090815260409020546001600160a01b031681565b6040516001600160a01b03909116815260200160405180910390f35b610095610164565b6000546001600160a01b03166100c0565b61009561010336600461058d565b610178565b6001546100c0906001600160a01b031681565b6100956101293660046105a6565b610422565b61013661049b565b60009182526002602052604090912080546001600160a01b0319166001600160a01b03909216919091179055565b61016c61049b565b61017660006104f5565b565b60015460408051630ecce30160e31b815290516000926001600160a01b03169163766718089160048083019260209291908290030181865afa1580156101c2573d6000803e3d6000fd5b505050506040513d601f19601f820116820180604052508101906101e691906105c8565b60008181526002602081905260408220549293506001600160a01b0390921691816102128560016105e1565b81526020810191909152604001600020546001600160a01b03169050806102805760405162461bcd60e51b815260206004820152601960248201527f4e6578742065706f6368206e6f7420726567697374657265640000000000000060448201526064015b60405180910390fd5b6040516323b872dd60e01b8152336004820152306024820152604481018590526001600160a01b038316906323b872dd906064016020604051808303816000875af11580156102d3573d6000803e3d6000fd5b505050506040513d601f19601f820116820180604052508101906102f79190610608565b50604051630852cd8d60e31b8152600481018590526001600160a01b038316906342966c6890602401600060405180830381600087803b15801561033a57600080fd5b505af115801561034e573d6000803e3d6000fd5b505050506000600285610361919061062a565b6040516340c10f1960e01b8152336004820152602481018290529091506001600160a01b038316906340c10f1990604401600060405180830381600087803b1580156103ac57600080fd5b505af11580156103c0573d6000803e3d6000fd5b503392507f42a82a0af090bd43dd4001c2059d77cdb630fc8a1b62b934557b94b1114faed991508690506103f58160016105e1565b60408051928352602083019190915281018890526060810184905260800160405180910390a25050505050565b61042a61049b565b6001600160a01b03811661048f5760405162461bcd60e51b815260206004820152602660248201527f4f776e61626c653a206e6577206f776e657220697320746865207a65726f206160448201526564647265737360d01b6064820152608401610277565b610498816104f5565b50565b6000546001600160a01b031633146101765760405162461bcd60e51b815260206004820181905260248201527f4f776e61626c653a2063616c6c6572206973206e6f7420746865206f776e65726044820152606401610277565b600080546001600160a01b038381166001600160a01b0319831681178455604051919092169283917f8be0079c531659141344cd1fd0a4f28419497f9722a3daafe3b4186f6b6457e09190a35050565b80356001600160a01b038116811461055c57600080fd5b919050565b6000806040838503121561057457600080fd5b8235915061058460208401610545565b90509250929050565b60006020828403121561059f57600080fd5b5035919050565b6000602082840312156105b857600080fd5b6105c182610545565b9392505050565b6000602082840312156105da57600080fd5b5051919050565b8082018082111561060257634e487b7160e01b600052601160045260246000fd5b92915050565b60006020828403121561061a57600080fd5b815180151581146105c157600080fd5b60008261064757634e487b7160e01b600052601260045260246000fd5b50049056fea26469706673582212200de0cd072e87cf52ee47feec369f2b53629f33e12de2feb49c60de16c485c82e64736f6c63430008140033",
  "linkReferences": {},
  "deployedLinkReferences": {}
}