{
  "_format": "hh-sol-artifact-1",
  "contractName": "EpochManager",
  "sourceName": "contracts/EpochManager.sol",
  "abi": [
    {
      "inputs": [
        {
          "internalType": "uint256",
          "name": "initialSupply",
          "type": "uint256"
        },
        {
          "internalType": "address",
          "name": "_controller",
          "type": "address"
        }
      ],
      "stateMutability": "nonpayable",
      "type": "constructor"
    },
    {
      "anonymous": false,
      "inputs": [
        {
          "indexed": true,
          "internalType": "uint256",
          "name": "newEpoch",
          "type": "uint256"
        },
        {
          "indexed": false,
          "internalType": "uint256",
          "name": "supplyCap",
          "type": "uint256"
        }
      ],
      "name": "EpochAdvanced",
      "type": "event"
    },
    {
      "inputs": [],
      "name": "advanceEpoch",
      "outputs": [],
      "stateMutability": "nonpayable",
      "type": "function"
    },
    {
      "inputs": [],
      "name": "controller",
      "outputs": [
        {
          "internalType": "address",
          "name": "",
          "type": "address"
        }
      ],
      "stateMutability": "view",
      "type": "function"
    },
    {
      "inputs": [],
      "name": "currentEpoch",
      "outputs": [
        {
          "internalType": "uint256",
          "name": "",
          "type": "uint256"
        }
      ],
      "stateMutability": "view",
      "type": "function"
    },
    {
      "inputs": [
        {
          "internalType": "uint256",
          "name": "",
          "type": "uint256"
        }
      ],
      "name": "epochSupply",
      "outputs": [
        {
          "internalType": "uint256",
          "name": "",
          "type": "uint256"
        }
      ],
      "stateMutability": "view",
      "type": "function"
    }
  ],
  "bytecode": "0x608060405234801561001057600080fd5b5060405161033738038061033783398101604081905261002f91610085565b600160008181558190526020527fcc69885fda6bcc1a4ace058b4a62bf5e179ea78fd58a1ccd71c22cc9b688792f91909155600280546001600160a01b0319166001600160a01b039092169190911790556100c2565b6000806040838503121561009857600080fd5b825160208401519092506001600160a01b03811681146100b757600080fd5b809150509250929050565b610266806100d16000396000f3fe608060405234801561001057600080fd5b506004361061004c5760003560e01c80633cf80e6c14610051578063766718081461005b578063944305a714610077578063f77c479114610097575b600080fd5b6100596100c2565b005b61006460005481565b6040519081526020015b60405180910390f35b6100646100853660046101ad565b60016020526000908152604090205481565b6002546100aa906001600160a01b031681565b6040516001600160a01b03909116815260200161006e565b6002546001600160a01b031633146101115760405162461bcd60e51b815260206004820152600e60248201526d2737ba1031b7b73a3937b63632b960911b604482015260640160405180910390fd5b600080549080610120836101dc565b9190505550600260016000600160005461013a91906101f5565b815260200190815260200160002054610153919061020e565b600080548152600160205260408082209290925580548082529082902054915190917facfa06cebbab8226f9a388bff9f5fcf4569298028d939f4765958dc57dbb330b916101a391815260200190565b60405180910390a2565b6000602082840312156101bf57600080fd5b5035919050565b634e487b7160e01b600052601160045260246000fd5b6000600182016101ee576101ee6101c6565b5060010190565b81810381811115610208576102086101c6565b92915050565b60008261022b57634e487b7160e01b600052601260045260246000fd5b50049056fea264697066735822122028589cebb555e4ad6943d392317dc139b3a8531482691da20d100c5710812d1e64736f6c63430008140033",
  "linkReferences": {},
  "deployedLinkReferences": {}
}