{
  "_format": "hh-sol-artifact-1",
  "contractName": "DripRoyalties",
  "sourceName": "contracts/DripRoyalties.sol",
  "abi": [
    {
      "inputs": [
        {
          "internalType": "address",
          "name": "_saltToken",
          "type": "address"
        }
      ],
      "stateMutability": "nonpayable",
      "type": "constructor"
    },
    {
      "anonymous": false,
      "inputs": [
        {
          "indexed": false,
          "internalType": "uint256",
          "name": "amount",
          "type": "uint256"
        }
      ],
      "name": "DripFunded",
      "type": "event"
    },
    {
      "anonymous": false,
      "inputs": [
        {
          "indexed": true,
          "internalType": "address",
          "name": "user",
          "type": "address"
        },
        {
          "indexed": false,
          "internalType": "uint256",
          "name": "amount",
          "type": "uint256"
        }
      ],
      "name": "Dripped",
      "type": "event"
    },
    {
      "anonymous": false,
      "inputs": [
        {
          "indexed": true,
          "internalType": "address",
          "name": "previousOwner",
          "type": "address"
        },
        {
          "indexed": true,
          "internalType": "address",
          "name": "newOwner",
          "type": "address"
        }
      ],
      "name": "OwnershipTransferred",
      "type": "event"
    },
    {
      "inputs": [],
      "name": "claim",
      "outputs": [],
      "stateMutability": "nonpayable",
      "type": "function"
    },
    {
      "inputs": [
        {
          "internalType": "address",
          "name": "",
          "type": "address"
        }
      ],
      "name": "claimed",
      "outputs": [
        {
          "internalType": "uint256",
          "name": "",
          "type": "uint256"
        }
      ],
      "stateMutability": "view",
      "type": "function"
    },
    {
      "inputs": [],
      "name": "dripPool",
      "outputs": [
        {
          "internalType": "uint256",
          "name": "",
          "type": "uint256"
        }
      ],
      "stateMutability": "view",
      "type": "function"
    },
    {
      "inputs": [
        {
          "internalType": "address",
          "name": "",
          "type": "address"
        }
      ],
      "name": "lastClaim",
      "outputs": [
        {
          "internalType": "uint256",
          "name": "",
          "type": "uint256"
        }
      ],
      "stateMutability": "view",
      "type": "function"
    },
    {
      "inputs": [],
      "name": "owner",
      "outputs": [
        {
          "internalType": "address",
          "name": "",
          "type": "address"
        }
      ],
      "stateMutability": "view",
      "type": "function"
    },
    {
      "inputs": [],
      "name": "renounceOwnership",
      "outputs": [],
      "stateMutability": "nonpayable",
      "type": "function"
    },
    {
      "inputs": [],
      "name": "saltToken",
      "outputs": [
        {
          "internalType": "contract IERC20",
          "name": "",
          "type": "address"
        }
      ],
      "stateMutability": "view",
      "type": "function"
    },
    {
      "inputs": [
        {
          "internalType": "address",
          "name": "newOwner",
          "type": "address"
        }
      ],
      "name": "transferOwnership",
      "outputs": [],
      "stateMutability": "nonpayable",
      "type": "function"
    },
    {
      "stateMutability": "payable",
      "type": "receive"
    }
  ],
  "bytecode": "0x608060405234801561001057600080fd5b5060405161073638038061073683398101604081905261002f916100ad565b6100383361005d565b600180546001600160a01b0319166001600160a01b03929092169190911790556100dd565b600080546001600160a01b038381166001600160a01b0319831681178455604051919092169283917f8be0079c531659141344cd1fd0a4f28419497f9722a3daafe3b4186f6b6457e09190a35050565b6000602082840312156100bf57600080fd5b81516001600160a01b03811681146100d657600080fd5b9392505050565b61064a806100ec6000396000f3fe60806040526004361061007f5760003560e01c80638da5cb5b1161004e5780638da5cb5b14610157578063b0b2556114610189578063c884ef83146101a9578063f2fde38b146101d657600080fd5b8063205ccb13146100d55780634e71d92d146100fe5780635c16e15e14610115578063715018a61461014257600080fd5b366100d05734600260008282546100969190610566565b90915550506040513481527f9adb2fc8c4b9059e784662f769cb7eba9bac4fef9168c8336767649a0471a93b9060200160405180910390a1005b600080fd5b3480156100e157600080fd5b506100eb60025481565b6040519081526020015b60405180910390f35b34801561010a57600080fd5b506101136101f6565b005b34801561012157600080fd5b506100eb61013036600461057f565b60046020526000908152604090205481565b34801561014e57600080fd5b50610113610419565b34801561016357600080fd5b506000546001600160a01b03165b6040516001600160a01b0390911681526020016100f5565b34801561019557600080fd5b50600154610171906001600160a01b031681565b3480156101b557600080fd5b506100eb6101c436600461057f565b60036020526000908152604090205481565b3480156101e257600080fd5b506101136101f136600461057f565b61042d565b6000600254116102405760405162461bcd60e51b815260206004820152601060248201526f4e6f7468696e6720746f20636c61696d60801b60448201526064015b60405180910390fd5b6001546040516370a0823160e01b81523360048201526000916001600160a01b0316906370a0823190602401602060405180830381865afa158015610289573d6000803e3d6000fd5b505050506040513d601f19601f820116820180604052508101906102ad91906105af565b9050600081116102e95760405162461bcd60e51b8152602060048201526007602482015266139bc814d0531560ca1b6044820152606401610237565b600154604080516318160ddd60e01b815290516000926001600160a01b0316916318160ddd9160048083019260209291908290030181865afa158015610333573d6000803e3d6000fd5b505050506040513d601f19601f8201168201806040525081019061035791906105af565b90506000816002548461036a91906105c8565b61037491906105df565b905080600260008282546103889190610601565b909155505033600090815260036020526040812080548392906103ac908490610566565b9091555050604051339082156108fc029083906000818181858888f193505050501580156103de573d6000803e3d6000fd5b5060405181815233907f0daf449977d5acafa35195e10b3eb92f97839892a6653afaba222379b58d8a9b9060200160405180910390a2505050565b6104216104a6565b61042b6000610500565b565b6104356104a6565b6001600160a01b03811661049a5760405162461bcd60e51b815260206004820152602660248201527f4f776e61626c653a206e6577206f776e657220697320746865207a65726f206160448201526564647265737360d01b6064820152608401610237565b6104a381610500565b50565b6000546001600160a01b0316331461042b5760405162461bcd60e51b815260206004820181905260248201527f4f776e61626c653a2063616c6c6572206973206e6f7420746865206f776e65726044820152606401610237565b600080546001600160a01b038381166001600160a01b0319831681178455604051919092169283917f8be0079c531659141344cd1fd0a4f28419497f9722a3daafe3b4186f6b6457e09190a35050565b634e487b7160e01b600052601160045260246000fd5b8082018082111561057957610579610550565b92915050565b60006020828403121561059157600080fd5b81356001600160a01b03811681146105a857600080fd5b9392505050565b6000602082840312156105c157600080fd5b5051919050565b808202811582820484141761057957610579610550565b6000826105fc57634e487b7160e01b600052601260045260246000fd5b500490565b818103818111156105795761057961055056fea26469706673582212204ef65e58e0bca4df0bdd279abe515b7ef84749dfa15423912f426693eb1cd2ca64736f6c63430008140033",
  "linkReferences": {},
  "deployedLinkReferences": {}
}